:020000040800F2
:10000000008001209D380008F5360008F73600080A
:10001000F9360008FB360008FD3600080000000035
:10002000000000000000000000000000D12D0008CA
:10003000FF36000800000000712E0008013700089C
:10004000ED380008ED380008ED380008ED380008FC
:10005000ED380008ED380008ED380008ED380008EC
:10006000ED380008ED380008ED380008ED380008DC
:10007000ED380008ED380008ED380008ED380008CC
:10008000ED380008ED380008ED380008ED380008BC
:10009000ED380008ED380008ED3800080D3700088D
:1000A000ED380008ED380008ED380008ED3800089C
:1000B00009380008ED380008ED380008ED38000870
:1000C000ED380008ED380008ED380008ED3800087C
:1000D000ED380008ED380008ED380008ED3800086C
:1000E000ED380008ED380008ED380008ED3800085C
:1000F000ED380008ED380008ED380008ED3800084C
:10010000ED380008ED380008ED380008ED3800083B
:10011000ED380008ED380008ED380008ED3800082B
:10012000ED380008ED380008ED380008ED3800081B
:10013000ED380008ED380008ED380008ED3800080B
:10014000ED380008ED380008ED380008ED380008FB
:10015000ED380008ED380008ED380008ED380008EB
:10016000ED380008ED380008ED380008ED380008DB
:10017000ED380008ED380008ED38000800000000F8
:08018000ED380008ED3800081D
:1001900010B5054C237833B9044B13B10448AFF3C1
:1001A00000800123237010BD7000002000000000BB
:1001B0006441000808B5034B1BB103490348AFF382
:1001C000008008BD000000007400002064410008A9
:1001D00053B94AB9002908BF00281CBF4FF0FF31AE
:1001E0004FF0FF3000F072B9ADF1080C6DE904CEAC
:1001F00000F006F8DDF804E0DDE9022304B0704702
:100200002DE9F047089E04468846002B4BD18A42D0
:10021000154667D9B2FA82F24AB1C2F1200701FA53
:1002200002F320FA07F7954047EA030894404FEAA3
:10023000154E230CB8FBFEF71FFA85FC0EFB178842
:1002400043EA084307FB0CF1994209D9EB1807F17F
:10025000FF3080F01B81994240F21881023F2B440D
:100260005B1AA4B2B3FBFEF00EFB103344EA034466
:1002700000FB0CFCA44509D92C1900F1FF3380F0D8
:100280000781A44540F2048102382C4440EA07402B
:10029000A4EB0C0400271EB1D4400023C6E90043A0
:1002A0003946BDE8F0878B4209D9002E00F0EB807B
:1002B0000027C6E9000138463946BDE8F087B3FAA1
:1002C00083F7002F47D18B4202D3824200F2FA809B
:1002D000841A61EB030301209846002EE0D0C6E9A2
:1002E0000048DDE702B9FFDEB2FA82F2002A40F0F0
:1002F0008F80491B4FEA154E1FFA85F80127B1FB85
:10030000FEFC230C0EFB1C1143EA014308FB0CF11D
:10031000994207D9EB180CF1FF3002D2994200F252
:10032000CD808446591AA3B2B1FBFEF00EFB101427
:1003300043EA044408FB00F8A04507D92C1900F152
:10034000FF3302D2A04500F2B6801846A4EB0804A1
:1003500040EA0C409FE7C7F1200CBB4022FA0CFE9C
:100360004EEA030E01FA07F420FA0CF521FA0CF319
:100370004FEA1E482543B3FBF8F92C0C08FB193350
:100380001FFA8EFA44EA034309FB0AF49C4202FA7C
:1003900007F200FA07F10BD91EEB030309F1FF3056
:1003A00080F087809C4240F28480A9F10209734466
:1003B0001B1BADB2B3FBF8F008FB103345EA034456
:1003C00000FB0AFAA24508D91EEB040400F1FF3332
:1003D0006BD2A24569D90238744440EA0940A0FBB7
:1003E0000289A4EB0A044C45C2464B4654D351D073
:1003F000002E69D0B1EB0A0564EB030404FA0CFC8F
:10040000FD40FC404CEA0505C6E90054002747E7DB
:10041000C2F1200320FA03F7954001FA02F021FA15
:1004200003F34FEA154E3843010CB3FBFEF71FFAF6
:1004300085F80EFB173341EA034107FB08F38B42B3
:1004400004FA02F407D9691807F1FF3C2FD28B4256
:100450002DD9023F2944CB1A81B2B3FBFEF00EFB2B
:10046000103341EA034100FB08F38B4207D96918B6
:1004700000F1FF3C17D28B4215D902382944C91A22
:1004800040EA07473BE73746304609E70746E7E6D5
:100490001846FBE64145ABD2B8EB020A69EB0E0207
:1004A00001381346A4E76046E9E7184695E7674632
:1004B000D1E781467CE702382C4447E7ACF1020CD7
:1004C0002B442FE7384608E73746E9E6704700BF78
:1004D000034613F8012B002AFBD1181A0138704784
:1004E00001F0FF01102A2BDB10F0070F08D010F8E5
:1004F000013B013A8B422DD010F0070F42B3F6D1E9
:10050000F0B441EA012141EA014122F007047FF001
:1005100000070023F0E80256083C85EA010586EA58
:10052000010685FA47F5A3FA87F586FA47F6A5FA94
:1005300087F68EB9EED1F0BC01F0FF0102F00702A0
:1005400032B110F8013B013A83EA010313B1F8D14B
:100550000020704701387047002D06BF354603382C
:10056000073815F0010F07D1013015F4807F02BF65
:10057000013015F4C03F0130F0BC0138704700BFB6
:1005800010B50446094B1868094BA3FB00308009DD
:1005900000F086F808B1012010BD002221464FF07E
:1005A000FF3000F03DF80020F6E700BF0400002017
:1005B000D34D621010B5094A136843F48073136079
:1005C000032000F01BF80F20FFF7DAFF10B1012421
:1005D000204610BD044602F0F3FFF9E70020024078
:1005E000024A136801331360704700BFA00D00205A
:1005F000014B1868704700BFA00D0020074AD36860
:1006000023F4E0631B041B0C000200F4E0601843B9
:1006100040F0BF6040F40030D060704700ED00E073
:1006200030B4174BDB68C3F30223C3F10704042C77
:1006300028BF04241D1D062D18D9033B4FF0FF359C
:1006400005FA04F421EA0401994005FA03F322EAC9
:100650000303194300280BDB0901C9B200F1604014
:1006600000F5614080F8001330BC70470023E5E7D7
:1006700000F00F000901C9B2024B1954F4E700BFA2
:1006800000ED00E014ED00E000F01F02400901233E
:100690009340024A42F82030704700BF00E100E07A
:1006A0000138B0F1807F0AD2064B5860064AF0212B
:1006B00082F823100020986007221A6070470120FA
:1006C000704700BF10E000E000ED00E0F0B482B041
:1006D000002341E0D0F82CC02CEA040CC6F3C0047F
:1006E0009C4044EA0C04C46286E0062400E0002436
:1006F000B4403C430235664E46F82540654C2568BB
:10070000D44304EA05064F6817F4803F01D042EA5B
:100710000506604D2E606D6804EA05064F6817F403
:10072000003F01D042EA05065A4D6E60AD6804EA0A
:1007300005064F6817F4801F01D042EA0506554DA3
:10074000AE60ED682C404E6816F4001F01D042EAFE
:100750000504504AD46001330A6832FA03F400F009
:10076000938001249C402240F5D04D68022D01D099
:10077000122D10D1DE08083650F826C003F0070508
:10078000AF000F25BD402CEA050C0D69BD4045EAC0
:100790000C0540F8265006685F000325BD40ED4378
:1007A00005EA060C4E6806F00306BE4046EA0C0653
:1007B00006604E6806F1FF3CBCF1010F03D9112E13
:1007C00001D0122E11D1866805EA060CCE68BE4013
:1007D00046EA0C068660466826EA040C4E68C6F3B4
:1007E00000169E4046EA0C0646604E6806F0030C72
:1007F000BCF1030F3FF46EAFC46825408C68BC4069
:100800002C43C4604C6814F0805FA4D0224C256E49
:1008100045F001052566246E04F001040194019C55
:100820009D08AE1C1A4C54F8267003F00304A60071
:100830000F24B44027EA0407B0F1904F3FF457AFBC
:10084000164CA04216D004F58064A04214D004F5E2
:100850008064A04212D004F58064A04210D004F558
:100860008064A0420ED004F58064A0423FF43DAF06
:1008700007243DE701243BE7022439E7032437E757
:10088000042435E7052433E702B0F0BC704700BF0D
:100890000000014000040140001002400004004834
:1008A0000369194201D100207047012070470AB93D
:1008B00081627047816170477047000008B5054B41
:1008C0005B69034200D108BD024B5861FFF7F4FF9A
:1008D000F9E700BF00040140024B186800F4C06053
:1008E000704700BF00700040B0F5007F0FD01F4B75
:1008F0001B6803F4C063B3F5806F34D01B4A1368E0
:1009000023F4C06343F48063136000207047174BE7
:100910001B6803F4C063B3F5007F22D0134A136849
:1009200023F4C06343F400731360114B1A6832233D
:1009300003FB02F30F4AA2FB03239B0C013300E0ED
:10094000013B0A4A526912F4806F01D0002BF7D1A3
:10095000064B5B6913F4806F01D1002070470320C0
:100960007047002070470020704700BF00700040B3
:100970000400002083DE1B4330B583B00546204BC6
:100980009B6D13F0805F0BD0FFF7A6FFB0F5007FE3
:1009900017D0802D1FD82DD0702D2DD000211BE019
:1009A000174CA36D43F08053A365A36D03F08053F0
:1009B0000193019BFFF790FFA36D23F08053A36584
:1009C000E4E7802D03D9A02D03D9022104E0002102
:1009D00002E0012100E003210A4A136823F0070323
:1009E0000B431360136803F007038B4206D001200A
:1009F00003B030BD0221EFE70121EDE70020F7E76A
:100A00000010024000200240314A9368D26802F090
:100A1000030213F00C030AD00C2B06D0042B1FD0BA
:100A2000082B20D00020014610E0012AF6D1284AE8
:100A3000126812F0080F0CD1254AD2F89420C2F3A4
:100A40000322244951F8221043B100200C2B0DD071
:100A500070471F4A1268C2F30312F2E70846F5E72F
:100A60001D480021F2E71D480021EFE7184BDA6826
:100A700002F00302DB68C3F302130133022A0AD037
:100A8000032A1AD0B1FBF3F3114AD068C0F3062051
:100A900000FB03F008E01048B0FBF3F30C4AD06809
:100AA000C0F3062000FB03F0094BDB68C3F341638E
:100AB00001335B00B0FBF3F0CAE70848B0FBF3F387
:100AC000034AD068C0F3062000FB03F0ECE700BF48
:100AD00000100240944100080024F40000127A0043
:100AE000002800F09082F0B583B00446AC4B9D68BE
:100AF00005F00C05DE6806F00306036813F0100F1E
:100B00005DD0E5B10C2D18D0A369002B00F0B780A3
:100B1000A34A136843F001031360FFF769FD07461A
:100B20009F4B1B6813F0020F40F09680FFF760FDAB
:100B3000C01B0228F4D9032371E2012EE4D1984BA3
:100B40001B6813F0020F03D0A369002B00F05E8234
:100B5000206A934B1B6813F0080F5DD0904B1B6805
:100B600003F0F00398425ED9FFF706FF002840F03B
:100B70004F828B4B1A6842F008021A601A6822F002
:100B8000F002216A0A431A605A6822F47F42E1693E
:100B900042EA01225A60FFF737FF814B9B68C3F39B
:100BA0000313804AD35C03F01F03D8407E4B1860C8
:100BB0000F20FFF7E5FC0346002840F03082236851
:100BC00013F0010F7AD0082D6FD00C2D6BD0636815
:100BD000B3F5803F00F09180B3F5A02F00F0938033
:100BE0006F4B1A6822F480321A601A6822F480224D
:100BF0001A606368002B00F09380FFF7F9FC07464A
:100C0000674B1B6813F4003F58D1FFF7F1FCC01B82
:100C10006428F5D9032302E2614BD3F894301B0911
:100C200003F0F0039EE75E4B1A6842F008021A6078
:100C30001A6822F0F002216A0A431A605A6822F404
:100C40007F42E16942EA01225A60206AFFF794FE7E
:100C50000028A0D00123E2E1514B1A6842F00802BB
:100C60001A601A6822F0F002216A0A431A605A6870
:100C700022F47F42E16942EA01225A609FE7484A32
:100C8000136823F001031360FFF7B2FC0746444BDF
:100C90001B6813F0020F92D0FFF7AAFCC01B0228BA
:100CA000F5D90323BBE1032E91D13D4B1B6813F40F
:100CB000003F03D06368002B00F0AC81236813F081
:100CC000020F4FD0042D3CD00C2D38D0E368002B00
:100CD00075D0334A136843F480731360FFF788FCC0
:100CE00006462F4B1B6813F4806F5FD1FFF780FC23
:100CF000801B0228F5D9032391E1294A136843F4A4
:100D00008033136075E703F18043A3F53C331A6821
:100D100042F480221A601A6842F480321A6068E74E
:100D2000FFF766FC07461E4B1B6813F4003FC5D057
:100D3000FFF75EFCC01B6428F5D903236FE1022E88
:100D4000C4D1174B1B6813F4806F03D0E368002BEA
:100D500000F06281124A536823F0F853216943EA94
:100D600001635360236813F0080F53D06369002BAD
:100D700039D00B4AD2F8943043F00103C2F89430D2
:100D8000FFF736FC0646064BD3F8943013F0020FFB
:100D900040D1FFF72DFC801B0228F4D903233EE14C
:100DA00000100240C4410008040000209E4A53681D
:100DB00023F0F853216943EA01635360D2E79A4A6A
:100DC000136823F480731360FFF712FC0646964BFA
:100DD0001B6813F4806FC5D0FFF70AFC801B022844
:100DE000F5D903231BE1904AD2F8943023F0010394
:100DF000C2F89430FFF7FCFB06468B4BD3F89430D7
:100E000013F0020F06D0FFF7F3FB801B0228F4D982
:100E1000032304E1236813F0040F7AD0824B9B6D07
:100E200013F0805F0BD1804B9A6D42F080529A652F
:100E30009B6D03F080530193019B012600E0002687
:100E40007A4B1B6813F4807F26D0A368012B37D020
:100E5000052B3DD0744BD3F8902022F00102C3F84B
:100E60009020D3F8902022F00402C3F89020A368C9
:100E7000002B3BD0FFF7BCFB07466B4BD3F8903001
:100E800013F0020F44D1FFF7B3FBC01B41F28833CC
:100E90009842F2D90323C2E0644A136843F4807392
:100EA0001360FFF7A5FB0746604B1B6813F4807FB8
:100EB000CBD1FFF79DFBC01B0228F5D90323AEE081
:100EC000594AD2F8903043F00103C2F89030CEE78F
:100ED000554BD3F8902042F00402C3F89020D3F889
:100EE000902042F00102C3F89020C0E7FFF780FB9A
:100EF00007464D4BD3F8903013F0020F08D0FFF7A0
:100F000077FBC01B41F288339842F2D9032386E075
:100F100066BBA36A002B00F081800C2D00F082805C
:100F2000022B29D0404B1A6822F080721A601B688D
:100F300013F0205F04D13C4AD36823F00303D3604D
:100F4000394AD36823F0887323F48033D360FFF7E2
:100F50004FFB0446344B1B6813F0007F51D0FFF762
:100F600047FB001B0228F5D9032358E02E4A936D56
:100F700023F080539365CCE72B4A136823F08073EA
:100F80001360FFF735FB0546274B1B6813F0007F06
:100F900006D0FFF72DFB401B0228F5D903233EE0C6
:100FA000236B5A1E636B1B0243EA0213A26B1209E6
:100FB00043EA4243E26A1343E26B5208013A43EACE
:100FC0004253226C5208013A43EA4263164AD36004
:100FD000136843F080731360D36843F08073D36069
:100FE000FFF706FB0446104B1B6813F0007F06D189
:100FF000FFF7FEFA001B0228F5D903230FE00023B8
:101000000DE000230BE0012318467047012306E0A2
:10101000012304E0012302E0012300E0002318463D
:1010200003B0F0BD0123FAE7001002400070004059
:10103000002800F09A8070B504464E4B1B6803F000
:1010400007038B420CD24B4A136823F007030B4370
:101050001360136803F007038B4201D0012070BDB9
:101060000D46236813F0010F39D06368032B09D0B4
:10107000022B26D063BB404A126812F0020F06D141
:101080000120ECE73C4A126812F0007F6FD03A4929
:101090008A6822F0030213438B60FFF7A9FA064621
:1010A000354B9B6803F00C036268B3EB820F16D0DC
:1010B000FFF79EFA801B41F288339842F0D9032053
:1010C000CDE72D4A126812F4003FE0D10120C6E7B7
:1010D000294A126812F4806FD9D10120BFE7236832
:1010E00013F0020F06D0244A936823F0F003A1689E
:1010F0000B4393601F4B1B6803F00703AB420CD9F3
:101100001C4A136823F007032B431360136803F092
:101110000703AB4201D00120A1E7236813F0040FBD
:1011200006D0154A936823F4E063E1680B439360AB
:10113000236813F0080F07D00F4A936823F4605315
:10114000216943EAC1039360FFF75EFC0A4B9B6889
:10115000C3F30313094AD35C03F01F03D840084BC1
:1011600018600F20FFF70CFA79E701207047012083
:1011700075E700BF0020024000100240C441000893
:1011800004000020014B1868704700BF04000020D5
:1011900008B5FFF7F7FF054B9B68C3F30223044A2A
:1011A000D35C03F01F03D84008BD00BF001002400D
:1011B000D441000808B5FFF7E5FF054B9B68C3F372
:1011C000C223044AD35C03F01F03D84008BD00BF0C
:1011D00000100240D4410008F8B55A4BDB6813F008
:1011E000030F18D0574BDB6803F0030302689342E8
:1011F00002D001252846F8BD002A00F0A080514BFE
:10120000DB68C3F3021301334268934201D0012526
:10121000F0E700251AE00368022B59D0032B5ED0BB
:10122000012B01D001250FE0464A126812F0020F8F
:1012300061D0444DEA6822F073024468013C43EAFD
:1012400004131343EB600025002DD3D10F46044651
:101250003C4A136823F080631360FFF7C9F9064620
:10126000384B1B6813F0006F05D0FFF7C1F9801BE6
:101270000228F5D90325002DBCD1002F3DD13149DD
:101280000B6923F41F3323F44073A068E26812094A
:10129000520442EA002213430B612A4A136843F0C6
:1012A00080631360FFF7A4F90646264B1B6813F012
:1012B000006F05D1FFF79CF9801B0228F5D90325A3
:1012C000002D97D11F4A1369A1690B43136191E760
:1012D0001C4A126812F4806FABD10125B4E7194A99
:1012E000126812F4003FA4D1164A126812F4802F3B
:1012F0009FD10125A8E70125A6E7012F0FD01148AE
:10130000026922F0C06222F4FE42A16863695B08B0
:10131000013B5B0643EA012313430361BDE7094830
:10132000026922F4C00222F4FE42A16823695B082C
:10133000013B5B0543EA012313430361ADE701254C
:1013400058E700BF00100240F8B5514BDB6813F0BE
:10135000030F18D04E4BDB6803F00303026893427F
:1013600002D001252846F8BD002A00F08E80484BA7
:10137000DB68C3F3021301334268934201D00125B5
:10138000F0E700251AE00368022B59D0032B5ED04A
:10139000012B01D001250FE03D4A126812F0020F27
:1013A00061D03B4DEA6822F073024468013C43EA95
:1013B00004131343EB600025002DD3D10F460446E0
:1013C000334A136823F080531360FFF711F9064680
:1013D0002F4B1B6813F0005F05D0FFF709F9801B46
:1013E0000228F5D90325002DBCD1002F3DD1284975
:1013F0004B6923F41F3323F44073A068E268120999
:10140000520442EA002213434B61214A136843F01D
:1014100080531360FFF7ECF806461D4B1B6813F072
:10142000005F05D1FFF7E4F8801B0228F5D90325FA
:10143000002D97D1164A536961690B43536191E7B7
:10144000134A126812F4806FABD10125B4E7104A39
:10145000126812F4003FA4D10D4A126812F4802FD2
:101460009FD10125A8E70125A6E70948426922F096
:10147000C06222F4FE42A16823695B08013B5B065F
:1014800043EA012313434361BFE701256AE700BF35
:10149000001002402DE9F04182B00446036813F4C5
:1014A000006F2FD0436EB3F5800F25D008D9B3F568
:1014B000000F10D0B3F5400F40F09980002610E0E7
:1014C000002B40F0948000210430FFF785FE064693
:1014D0003EB1374618E05E4AD36843F48033D360A8
:1014E00000265B4AD2F8883023F44003616E0B4338
:1014F000C2F88830002707E000212030FFF724FFE2
:101500000646E5E700273E46236813F4805F15D0C2
:10151000A36EB3F1807F7AD06CD9B3F1007F70D025
:10152000B3F1407F7AD1002E7BD1494AD2F888307E
:1015300023F04073A16E0B43C2F88830236813F484
:10154000003F00F08E80424B9B6D13F0805F6AD1AC
:101550003F4B9A6D42F080529A659B6D03F0805329
:101560000193019B4FF001083A4A136843F48073DA
:101570001360FFF73DF80546364B1B6813F4807F78
:1015800005D1FFF735F8401B0228F5D90326002EB8
:1015900062D12F4BD3F8903013F4407316D0D4F8A7
:1015A00084209A4212D02A4AD2F8903023F4407311
:1015B000D2F8901041F48031C2F89010D2F8901017
:1015C00021F48031C2F89010C2F8903013F0010F6E
:1015D0002CD1002E40F043811D4AD2F8903023F4E4
:1015E0004073D4F884100B43C2F8903035E00127E3
:1015F0003E4689E793B90021201DFFF7EDFD064621
:1016000091E7134AD36843F48033D3608BE700211A
:1016100004F12000FFF798FE064684E701273E46C6
:101620008CE737468AE74FF000089DE7FEF7E0FFBA
:101630000546074BD3F8903013F0020FC9D1FEF7DF
:10164000D7FF401B41F288339842F2D90326C0E706
:1016500000100240007000403746B8F1000F40F023
:101660000081236813F0010F08D09D4AD2F888301A
:1016700023F00303A16B0B43C2F88830236813F0F7
:10168000020F08D0964AD2F8883023F00C03E16BA1
:101690000B43C2F88830236813F0040F08D0904A37
:1016A000D2F8883023F03003216C0B43C2F8883025
:1016B000236813F0080F08D0894AD2F8883023F045
:1016C000C003616C0B43C2F88830236813F0100F1D
:1016D00008D0834AD2F8883023F44073A16C0B43BE
:1016E000C2F88830236813F0200F08D07C4AD2F863
:1016F000883023F44063E16C0B43C2F888302368E0
:1017000013F4007F08D0764AD2F8883023F44023BF
:10171000E16D0B43C2F88830236813F4806F08D062
:101720006F4AD2F8883023F44013216E0B43C2F87D
:101730008830236813F0400F08D0694AD2F8883007
:1017400023F44053216D0B43C2F88830236813F013
:10175000800F08D0624AD2F8883023F44043616D8C
:101760000B43C2F88830236813F4807F08D05C4AAA
:10177000D2F8883023F44033A16D0B43C2F888308F
:10178000236813F4005F0FD0554AD2F8883023F055
:101790004063E16E0B43C2F88830E36EB3F1006F33
:1017A00065D0B3F1806F67D0236813F4002F0FD09A
:1017B0004B4AD2F8883023F04063216F0B43C2F8C4
:1017C0008830236FB3F1006F5ED0B3F1806F60D0CB
:1017D000236813F4802F0FD0414AD2F8883023F0C9
:1017E0004063616F0B43C2F88830636FB3F1006FE1
:1017F00057D0B3F1806F59D0236813F4804F0FD0C6
:10180000374AD2F8883023F04053A16F0B43C2F817
:101810008830A36FB3F1805F50D0B3F1005F55D033
:10182000236813F4004F08D02D4AD2F8883023F0F3
:101830008043E16F0B43C2F88830236813F4803F84
:1018400009D0274AD2F8883023F00043D4F880101A
:101850000B43C2F88830384602B0BDE8F081374605
:10186000FBE61F4A936D23F080539365F9E6D36836
:1018700043F48013D36097E70121201DFFF7ACFCF0
:10188000002891D007468FE7D36843F48013D360D4
:101890009EE70121201DFFF79FFC002898D00746F6
:1018A00096E7D36843F48013D360A5E70121201D98
:1018B000FFF792FC00289FD007469DE70221201DDC
:1018C000FFF78AFC0028ABD00746A9E7022104F104
:1018D0002000FFF739FD0028A2D00746A0E700BF8F
:1018E0000010024010B4036A046A24F00104046288
:1018F000846924F0F00444EA021223F00A030B4343
:10190000826103625DF8044B704710B4036A23F0F0
:10191000100303628469036A24F4704444EA0232C7
:1019200023F0A00343EA0113826103625DF8044BD4
:101930007047836823F07003194341F00701816009
:1019400070470000022380F83D3002689168094B1F
:101950000B40062B09D09168064B0B40B3F5803F36
:1019600003D0136843F001031360012380F83D3076
:1019700000207047070001007047704770477047AC
:10198000704710B5044603681A6912F0020F11D0AF
:10199000DA6812F0020F0DD06FF002021A61012313
:1019A000037703689B6913F0030F79D0FFF7E6FF15
:1019B0000023237723681A6912F0040F12D0DA6823
:1019C00012F0040F0ED06FF004021A610223237785
:1019D00023689B6913F4407F68D02046FFF7CEFF51
:1019E0000023237723681A6912F0080F12D0DA68EF
:1019F00012F0080F0ED06FF008021A61042323774B
:101A00002368DB6913F0030F57D02046FFF7B6FFBA
:101A10000023237723681A6912F0100F12D0DA68B6
:101A200012F0100F0ED06FF010021A610823237706
:101A30002368DB6913F4407F46D02046FFF79EFF02
:101A40000023237723681A6912F0010F03D0DA68A4
:101A500012F0010F3FD123681A6912F0800F03D0F2
:101A6000DA6812F0800F3DD123681A6912F4807F82
:101A700003D0DA6812F0800F3BD123681A6912F0A4
:101A8000400F03D0DA6812F0400F39D123681A6989
:101A900012F0200F03D0DA6812F0200F37D110BDFA
:101AA000FFF76BFF2046FFF76AFF81E72046FFF74D
:101AB00064FF2046FFF763FF92E72046FFF75DFFD4
:101AC0002046FFF75CFFA3E72046FFF756FF2046BE
:101AD000FFF755FFB4E76FF001021A612046FFF7E8
:101AE0004BFFB8E76FF080021A61204600F04FF913
:101AF000BAE76FF480721A61204600F049F9BCE73A
:101B00006FF040021A612046FFF73AFFBEE76FF020
:101B100020021A61204600F039F9C0E70368304A14
:101B2000904212D0B0F1804F0FD0A2F59432904283
:101B30000BD002F58062904207D002F5806290429D
:101B400003D002F59432904203D123F070034A6827
:101B50001343234A90421ED0B0F1804F1BD0A2F510
:101B60009432904217D002F58062904213D002F571
:101B7000806290420FD002F5943290420BD002F571
:101B80004062904207D002F58062904203D002F595
:101B90008062904203D123F44073CA68134323F058
:101BA00080034A69134303608B68C3620B688362D6
:101BB0000B4B98420FD003F5006398420BD003F50E
:101BC0004063984207D003F58063984203D003F541
:101BD0008063984201D10B6903630123436170471D
:101BE000002C0140A8B110B5044690F83D305BB11F
:101BF000022384F83D30211D2068FFF78FFF012369
:101C000084F83D30002010BD80F83C3001F0F8FC35
:101C1000EEE70120704710B4846824F47F4442EA60
:101C200003230B43234383605DF8044B704700009C
:101C300090F83C30012B73D010B50446012380F896
:101C40003C30022380F83D3002689068354B0340F9
:101C500093600B68402B59D010D9702B3CD01BD807
:101C6000502B49D0602B30D1CA6849682068FFF7F3
:101C70004CFE60212068FFF75CFE26E0102B06D0AA
:101C800004D9202B03D0302B01D01EE0EBB919462C
:101C90002068FFF74EFE18E0B3F5805F0ED0B3F575
:101CA000005F12D1CB684A6889682068FFF7B3FFEC
:101CB0002268936843F48043936006E02268936847
:101CC00023F4803323F007039360012384F83D302D
:101CD000002084F83C0010BDCB684A688968206801
:101CE000FFF799FF2268936823F4803323F077038A
:101CF00043F077039360E8E7CA6849682068FFF714
:101D0000F1FD50212068FFF714FEDEE7CA6849683C
:101D10002068FFF7E7FD40212068FFF70AFED4E7BF
:101D2000022070478800FEFF90F83C30012B28D03D
:101D300030B4012380F83C30022380F83D30026843
:101D400053689568104CA24203D004F50064A24287
:101D500003D123F470034C68234323F070030C6811
:101D6000234325F080048968214353600368996008
:101D7000012380F83D30002380F83C30184630BC09
:101D800070470220704700BF002C01407047704729
:101D9000704700002DE9F048044601688368026935
:101DA000134342691343C26913430868A24A0240BD
:101DB00013430B602268536823F44053E1680B43DC
:101DC0005360A16922689D4B9A4201D0236A19434E
:101DD000936823F430630B4393602368984A9342DB
:101DE00027D0984A934238D0974A93424ED0974A88
:101DF000934261D0964A934274D0904A934200F045
:101E00008A8010258D4A934200F0AA80E369B3F5D9
:101E1000004F00F03581082D00F2BF81DFE815F09A
:101E20007F0195019F01BD01AA01BD01BD01BD0159
:101E3000B40102F55842D2F8882002F00302032AC6
:101E400009D8DFE802F0020481060125DAE704255B
:101E5000D8E70825D6E71025D4E702F5E632D2F810
:101E6000882002F00C020C2A0ED8DFE802F0070DE1
:101E70000D0D090D0D0D6F0D0D0D0B000025C1E7AA
:101E80000425BFE70825BDE71025BBE702F5E432CE
:101E9000D2F8882002F03002102A09D005D9202A71
:101EA00056D0302A06D10825ACE71AB90025A9E793
:101EB0000425A7E71025A5E702F5E232D2F888202D
:101EC00002F0C002402A09D005D9802A42D0C02A97
:101ED00006D1082596E71AB9002593E7042591E76E
:101EE00010258FE702F5E032D2F8882002F4407224
:101EF000B2F5807F0BD007D9B2F5007F2CD0B2F5B8
:101F0000407F06D108257DE71AB900257AE7042528
:101F100078E7102576E702F5C832D2F8882002F477
:101F20004062B2F5806F0BD007D9B2F5006F15D0C3
:101F3000B2F5406F06D1082564E71AB9002561E7BC
:101F400004255FE710255DE702255BE7022559E7D9
:101F5000022557E7022555E7022553E7022551E7F9
:101F6000082D00F21D81DFE815F00C001B011400A4
:101F70001B0111001B011B011B0109004FF4004054
:101F800008E0FFF705F928B90020D9E0FEF73CFD8D
:101F9000F9E73048626802EB4203834200F20281B3
:101FA000B0EB023F00F20081082D66D8DFE805F0B3
:101FB00005652065306565655800FFF7E9F800257F
:101FC000070E0602626850082B4616EB000B47F11D
:101FD000000C58466146FEF7FBF803462846A3F579
:101FE00040711D4A914200F2E1802268D360A7E06F
:101FF000560800252B46DFF864B04FF0000C1BEBB1
:1020000006004CF10001FEF7E3F803462846E6E738
:10201000FEF7FAFC0025070E0602626850082B4600
:1020200016EB000B47F1000C58466146FEF7D0F85E
:1020300003462846D3E700BFF369FFEF0080004066
:10204000003801400044004000480040004C00407F
:10205000005000400024F400FFFC0F00000024F4B6
:102060005008002700252B4610F5000047F100011D
:10207000FEF7AEF803462846B1E701200023AEE79D
:10208000082D49D8DFE805F0051E2948344848489E
:102090003F00FFF77DF86268530803EB4003B3FB92
:1020A000F2F39BB20020A3F110014FF6EF729142C0
:1020B0007ED89AB222F00F02C3F342031343226880
:1020C000D3603DE0FFF776F86268530803EB400306
:1020D000B3FBF2F39BB20020E5E76268530803F11B
:1020E000F47303F59043B3FBF2F39BB20020DAE7FD
:1020F000FEF78AFC6268530803EB4003B3FBF2F37C
:102100009BB20020CFE76268530803F58033B3FB2E
:10211000F2F39BB20020C6E701200023C3E7FFF7DC
:1021200037F8636800EB5302B2FBF3F292B200207F
:10213000A2F110014FF6EF7399423BD82368DA60A1
:10214000002222666266BDE8F088FFF733F8636814
:1021500000EB5302B2FBF3F292B20020E8E76368AF
:102160005A0802F5740202F51052B2FBF3F292B271
:102170000020DDE7FEF748FC636800EB5302B2FB8A
:10218000F3F292B20020D3E763685A0802F50042E6
:10219000B2FBF3F292B20020CAE701200022C7E7A7
:1021A0000120CDE70120CBE70120C9E70120C7E7E7
:1021B0000120C5E70120C3E7436A13F0010F06D0F1
:1021C0000268536823F40033816A0B435360436A07
:1021D00013F0020F06D00268536823F48033C16AFB
:1021E0000B435360436A13F0040F06D00268536830
:1021F00023F48023016B0B435360436A13F0080FF1
:1022000006D00268536823F40043416B0B435360CC
:10221000436A13F0100F06D00268936823F48053CA
:10222000816B0B439360436A13F0200F06D0026862
:10223000936823F40053C16B0B439360436A13F01C
:10224000400F0AD00268536823F48013016C0B43DB
:102250005360036CB3F5801F0BD0436A13F0800FFB
:1022600006D00268536823F40023816C0B4353604B
:1022700070470268536823F4C003416C0B435360FA
:10228000EBE72DE9F04105460F4616469846069CB9
:102290002B68DB6937EA03030CBF01230023B34239
:1022A0001DD1B4F1FF3FF3D02CB1FEF7A1F9A0EBA3
:1022B0000800A042ECD92A68136823F4D073136095
:1022C0002A68936823F001039360202385F8713016
:1022D00085F87230002385F87030032000E000207C
:1022E000BDE8F0812DE9F04182B01E4690F87130D2
:1022F000DBB2202B4ED104460D46904600294ED02D
:10230000002A4ED090F87030012B4CD0012380F879
:10231000703000234367212380F87130FEF768F99D
:102320000746A4F85080A4F8528009E023682A7870
:102330001A850135B4F85230013B9BB2A4F85230F3
:10234000B4F852309BB2ABB100963B4600228021DC
:102350002046FFF796FF40BBA368B3F5805FE5D149
:102360002369002BE2D1226835F8023BC3F308034E
:102370001385DFE700963B46002240212046FFF709
:1023800080FF034698B9202284F87120002284F847
:10239000702000E00223184602B0BDE8F08101235E
:1023A000F9E70123F7E70223F5E70323F3E7032324
:1023B000F1E72DE9F04182B01E4690F87230DBB2B1
:1023C000202B71D104460D469046002970D0002A7A
:1023D00070D090F87030012B6ED0012380F87030EF
:1023E00000234367222380F87230FEF701F9074685
:1023F000A4F85880A4F85A80A368B3F5805F06D08B
:10240000A3B9236973B9FF23A4F85C3011E02369F1
:1024100023B940F2FF13A4F85C300AE0FF23A4F8CC
:102420005C3006E07F23A4F85C3002E0B3F1805F0B
:1024300002D0B4F85C8016E023691BB97F23A4F8AE
:102440005C30F6E73F23A4F85C30F2E723689A8C0F
:102450005FFA88F313402B700135B4F85A30013B12
:102460009BB2A4F85A30B4F85A309BB2ABB1009684
:102470003B46002220212046FFF703FFF0B9A36866
:10248000B3F5805FE2D12369002BDFD123689B8CF9
:1024900008EA030325F8023BDFE7202384F87230C3
:1024A000002084F8700000E0022002B0BDE8F08156
:1024B0000120FAE70120F8E70220F6E70320F4E71D
:1024C00030B583B0044600234367FEF791F8054614
:1024D00023681B6813F0080F0ED123681B6813F0E4
:1024E000040F17D1202384F8713084F87230002053
:1024F00084F8700003B030BD6FF07E430093034654
:1025000000224FF400112046FFF7BBFE0028E4D064
:102510000320EFE76FF07E4300932B4600224FF439
:1025200080012046FFF7ADFE0028DBD00320E1E765
:1025300078B310B5044690F871300BB3242384F8B7
:1025400071302268136823F0010313602046FFF7FF
:1025500021FC012813D0636ABBB92268536823F4B5
:10256000904353602268936823F02A0393602268A3
:10257000136843F0010313602046FFF7A1FF10BD6D
:1025800080F8703001F05AF8D8E72046FFF714FEC3
:10259000E3E701207047842801D003307047002012
:1025A000704708B500F000FA002008BDF0B585B00E
:1025B0000F46446805680669B0F90800FFF7EBFFAD
:1025C00003AB019300903B46B2B22946204600F08F
:1025D000B9F9012802D1039805B0F0BD0020FBE74E
:1025E00008B5034600B90123184600F01FFB002080
:1025F00008BD08B500F088FB012801D000F06AFC96
:1026000008BD00F1080343604FF0FF328260C360F1
:102610000361002303607047002303617047436830
:102620004B609A688A609A68516099600861036893
:1026300001330360704730B40D68B5F1FF3F02D03D
:1026400000F1080202E0026904E01A4653681C68BF
:10265000AC42FAD953684B6099608A605160086156
:1026600003680133036030BC7047036942688168C6
:1026700091608268416851605A68824206D00022A7
:1026800002611A68013A1A601868704782685A60D5
:10269000F5E70000074B9B6A1B6833B1054B9A6A4C
:1026A000D268D2685268DA627047024B4FF0FF324C
:1026B000DA6270478C00002010B50446006B00F011
:1026C0009DFD204600F09AFD10BD2DE9F0478046A3
:1026D0009946089D099F0A9C266B02F18042013AA7
:1026E00006EB820626F0070600230F2B07D8C85CEE
:1026F000E21882F83400CA5C0AB10133F5E700231E
:1027000084F84330062D00D90625E56265644FF054
:10271000000AC4F848A0201DFFF77EFF04F118004E
:10272000FFF77AFF2461C5F10705A5616462C4F86B
:102730004CA084F850A04A464146304600F032FB97
:10274000206007B13C60BDE8F087000070B5002450
:1027500007E004EB8402930010481844FFF751FF90
:102760000134062CF5D90E4C04F1BC063046FFF7B7
:1027700048FF04F1D0052846FFF743FF04F1140099
:10278000FFF73FFF04F1E400FFF73BFF2046FFF7B0
:1027900038FFA662C4F8F85070BD00BFBC0000202E
:1027A0008C00002038B5054600F024FB264BD3F8FA
:1027B000FC200132C3F8FC20D3F8003173B1224B66
:1027C000D3F804318BB9204BD3F80031DA6AEB6AC5
:1027D0009A420AD81C4BC3F8005106E01A4BC3F8C2
:1027E0000051D3F8FC30012B2AD0174CD4F8083113
:1027F0000133C4F80831EB6A01229A40D4F80C1175
:102800000A43C4F80C2104F1300003EB83039A005F
:10281000291D1044FFF703FF00F00EFBD4F804312C
:102820006BB1D4F80031DA6AEB6A9A4207D2074BEF
:102830004FF080521A60BFF34F8FBFF36F8F38BDD8
:10284000FFF784FFD1E700BF8C00002004ED00E01B
:1028500038B517E000F0CEFA0D4CD4F8F030DD6852
:10286000281DFFF702FFD4F8FC30013BC4F8FC3010
:10287000D4F81031013BC4F8103100F0DDFA2846DD
:10288000FFF71AFF024BD3F81031002BE2D138BD0D
:102890008C00002008B5FFF7DBFF064B1B6B012BFC
:1028A000F9D9054B4FF080521A60BFF34F8FBFF339
:1028B0006F8FF0E78C00002004ED00E070B5044657
:1028C0000E461F4BD3F81451D3F800010430FFF724
:1028D000CCFE60B91A4BD3F80021D16A012202FA6A
:1028E00001F1D3F80C2122EA0102C3F80C21B4F162
:1028F000FF3F12D02C44124BD3F800315C60A5424C
:1029000014D80F4DA86AD5F800110431FFF793FED3
:10291000EB6AA34212D9EC6210E0002EEAD008481C
:10292000D0F800110431FFF77AFE07E0044BD3F82A
:10293000F800D3F800110431FFF77DFE70BD00BF31
:102940008C0000202DE9F04385B0074688461546E7
:102950009946900000F0CCFBF8B10646542000F0F8
:10296000C7FB0446A8B10663D4B1002303930294C5
:102970000D9B01930C9B00934B462A4641463846DB
:10298000FFF7A3FE2046FFF70DFF012005B0BDE8CD
:10299000F083304600F032FCE6E74FF0FF30F5E719
:1029A0004FF0FF30F2E7000000B583B0174B019302
:1029B00000230093802216491648FFF7C3FF012821
:1029C00005D0B0F1FF3F17D003B05DF804FB4FF026
:1029D000500383F31188BFF36F8FBFF34F8F0E4BFC
:1029E0004FF0FF32DA620122C3F804210022C3F85B
:1029F000142100F0A1FAE7E74FF0500383F31188A8
:102A0000BFF36F8FBFF34F8FFEE700BFA801002019
:102A1000DC410008952800088C000020034AD2F809
:102A200018310133C2F81831704700BF8C00002004
:102A30002DE9F041404BD3F81831002B6CD13E4BBF
:102A4000D3F814510135C3F81451CDB99B6A1B68F2
:102A500043B14FF0500383F31188BFF36F8FBFF37F
:102A60004F8FFEE7344B9A6AD3F8F8109962C3F897
:102A7000F820D3F820210132C3F82021FFF70AFE05
:102A80002D4BDB6AAB423DD900242B4AD2F80031F2
:102A9000DB6A03EB830399000A44136B012B42D9D1
:102AA000012440E00124244B9B6A1B6863B3224B42
:102AB0009B6ADB68DE6873689D422AD306F10408CE
:102AC0004046FFF7D2FDB36A1BB106F11800FFF7CD
:102AD000CCFDF36A01229A40174FD7F80C110A4334
:102AE000C7F80C2107F1300003EB83039A0041463D
:102AF0001044FFF794FDF26AD7F80031DB6A9A427E
:102B0000D0D2D0E70024CEE70B4B4FF0FF32DA6291
:102B1000BBE7094AD362B8E7074AD2F82431013348
:102B2000C2F824310024044BD3F8283103B1012426
:102B30002046BDE8F08100BF8C000020394BD3F85F
:102B4000183143B94FF0500383F31188BFF36F8FEF
:102B5000BFF34F8FFEE770B500F04CF9314BD3F85F
:102B60001821013AC3F81821D3F81831002B54D199
:102B70002C4BD3F8FC3023B9002400F05DF920463B
:102B800070BD0024274B5B692BB3264D2B6ADC6894
:102B900004F11800FFF769FD261D3046FFF765FDBB
:102BA000E36A01229A40D5F80C110A43C5F80C21BA
:102BB00005F1300003EB83039A0031461044FFF720
:102BC0002EFDE26AD5F80031DB6A9A42DAD301229F
:102BD000C5F82821D6E70CB1FFF75CFD114BD3F8FF
:102BE000244164B1FFF724FF18B10E4B0122C3F852
:102BF0002821013CF6D10B4B0022C3F82421094BBC
:102C0000D3F828315BB1084B4FF080521A60BFF304
:102C10004F8FBFF36F8F0124AFE70024ADE700248F
:102C2000ABE700BF8C00002004ED00E010B5B0B1B0
:102C300004460F4BD3F8183143B14FF0500383F3E0
:102C40001188BFF36F8FBFF34F8FFEE7FFF7E6FEEC
:102C500000212046FFF732FEFFF770FF38B9054B21
:102C60004FF080521A60BFF34F8FBFF36F8F10BDCC
:102C70008C00002004ED00E0224BD3F8183123B182
:102C8000204B0122C3F8282170471E4A0023C2F8B6
:102C90002831D2F80C31B3FA83F3DBB2C3F11F034E
:102CA00003EB830081000A44126B42B94FF05003DA
:102CB00083F31188BFF36F8FBFF34F8FFEE710B41C
:102CC000104A9900CC18A0001044446B6468446317
:102CD0003032194488000830024494420BD009492C
:102CE00003EB83039A000A44536BDB68C1F800319D
:102CF0005DF8044B704761680248142202FB03022E
:102D00005163ECE78C000020064BD3F804313BB153
:102D1000044BD3F818310BB10020704702207047E4
:102D2000012070478C00002082B0002301930D4BDE
:102D30001B68B3F1FF3F08D04FF0500383F31188B5
:102D4000BFF36F8FBFF34F8FFEE74FF0500383F356
:102D50001188BFF36F8FBFF34F8F019B002BFCD007
:102D600002B070470000002008480068006880F347
:102D700008884FF0000080F3148862B661B6BFF394
:102D80004F8FBFF36F8F00DF00BF000008ED00E042
:102D9000DFF80C00016841F4700101607047000029
:102DA00088ED00E04FF0807340F8043C21F0010111
:102DB00040F8081C054B40F80C3C40F8202C6FF004
:102DC000020340F8243C4438704700BF292D000816
:102DD000074B19680868B0E8F04F80F30988BFF323
:102DE0006F8F4FF0000080F311887047AFF30080C1
:102DF0008C0100204FF0500383F31188BFF36F8FD5
:102E0000BFF34F8F0A4A136801331360012B00D0C0
:102E10007047084B1B6813F0FF0FF9D04FF05003B9
:102E200083F31188BFF36F8FBFF34F8FFEE700BFAF
:102E30000000002004ED00E0094B1B6843B94FF08F
:102E4000500383F31188BFF36F8FBFF34F8FFEE7FB
:102E5000013B034A13600BB983F31188704700BF2D
:102E60000000002000000000000000000000000042
:102E7000EFF30980BFF36F8F154B1A681EF0100F28
:102E800008BF20ED108A20E9F04F10602DE90900FD
:102E90004FF0500080F31188BFF34F8FBFF36F8F57
:102EA000FFF7EAFE4FF0000080F3118809BC1968B3
:102EB0000868B0E8F04F1EF0100F08BFB0EC108AA1
:102EC00080F30988BFF36F8F704700BFAFF30080B6
:102ED0008C01002008B54FF0500383F31188BFF335
:102EE0006F8FBFF34F8FFFF7A3FD18B1034B4FF068
:102EF00080521A60002383F3118808BD04ED00E0BE
:102F0000084A0023136008490B60084B1B680849F6
:102F1000A1FB03139B09013B06490B6007231360C8
:102F2000704700BF10E000E018E000E0040000205F
:102F3000D34D621014E000E0394B1A68394B9A42C5
:102F40000DD0374B1A68384B9A4211D14FF05003CD
:102F500083F31188BFF36F8FBFF34F8FFEE74FF0FE
:102F6000500383F31188BFF36F8FBFF34F8FFEE7DA
:102F700010B582B02D4B1A78D2B20192FF221A708E
:102F80001B78DBB28DF803309DF8033003F050035B
:102F9000274A13700723536009E0254A5368013B11
:102FA00053609DF803305B00DBB28DF803309DF871
:102FB000033013F0800FF0D11D4B5B68032B08D05A
:102FC0004FF0500383F31188BFF36F8FBFF34F8F20
:102FD000FEE71B0203F4E063154A5360019BDBB27A
:102FE000124A1370134B1A6842F470021A601A687E
:102FF00042F070421A60FFF783FF00240E4B1C6002
:10300000FFF7C6FE0D4A136843F040431360FFF715
:10301000ABFEFFF731FEFFF787FE204602B010BD82
:1030200000ED00E071C20F4170C20F4100E400E00A
:10303000B801002020ED00E00000002034EF00E0A7
:10304000144A12F0070F21D0D11D21F00701C1F55C
:103050003B63083313440A460E49C1F8B82B0020DD
:10306000C1F8BC0B1344083B23F00703C1F8C03B75
:1030700058601860981A50601360C1F8C40BC1F80A
:10308000C80B4FF00043C1F8CC3B704740F6B83353
:10309000E2E700BFC001002010B4134B1A6882425F
:1030A0001CD359685C18844203D1406801445960BC
:1030B000184641684418A24214D10C4CD4F8C04BB5
:1030C000A2420DD05268114441601A681268026031
:1030D000984200D018605DF8044B70471346DDE756
:1030E0000460F5E70260F3E7780D0020C0010020DE
:1030F00070B50446FFF792FC3F4BD3F8C03BC3B119
:103100003D4BD3F8CC3B1C426CD1ACB1083414F02D
:10311000070F11D024F00704083404F007035BB153
:103120004FF0500383F31188BFF36F8FBFF34F8FBE
:10313000FEE7FFF785FFE3E7002C55D02E4BD3F8D1
:10314000C83BA34252D32C4BD3F8B85B03F6B83339
:1031500001E02B4615466A68A24202D22A68002A7C
:10316000F7D1254AD2F8C02BAA4241D01E680836B2
:103170002A681A606B681B1B102B10D9281910F0D5
:10318000070F08D04FF0500383F31188BFF36F8F00
:10319000BFF34F8FFEE743606C60FFF77DFF696808
:1031A000154AD2F8C83B5B1AC2F8C83BD2F8C42B08
:1031B000934202D2104AC2F8C43B0F4BD3F8CC3B27
:1031C0000B436B6000232B60FFF7B8FC16F0070F72
:1031D00010D04FF0500383F31188BFF36F8FBFF30C
:1031E0004F8FFEE70026EFE70026EDE70026EBE72E
:1031F0000026E9E7304670BDC001002098B338B51D
:103200000446A0F1080550F8042C1749D1F8CC1B4E
:103210000A4208D14FF0500383F31188BFF36F8F38
:10322000BFF34F8FFEE750F8080C40B14FF050034A
:1032300083F31188BFF36F8FBFF34F8FFEE722EA4E
:10324000010244F8042CFFF7E9FB54F8041C064A79
:10325000D2F8C83B0B44C2F8C83B2846FFF71CFF16
:10326000FFF76CFC38BD7047C0010020F0B58BB093
:10327000002405940694079408940994374BDA6C5B
:1032800042F00402DA64DA6C02F004020192019A5C
:10329000DA6C42F08002DA64DA6C02F080020292A8
:1032A000029ADA6C42F00102DA64DA6C02F001028E
:1032B0000392039ADA6C42F00202DA64DB6C03F0E8
:1032C00002030493049B224620214FF09040FDF717
:1032D000EEFA4FF400530593214B06930794214DCA
:1032E00005A92846FDF7F2F9202305930126069645
:1032F0000794089405A94FF09040FDF7E7F94023A3
:103300000593194F0697079405A92846FDF7DEF99E
:10331000802305930697079405A92846FDF7D6F95B
:103320004FF4807305930697079405A92846FDF787
:10333000CDF94FF48063059306960794089605A986
:103340002846FDF7C3F9224605211720FDF768F945
:103350001720FDF799F90BB0F0BD00BF0010024037
:1033600000002110000800480000311008B509488D
:10337000094B03604FF4E133436000238360C36073
:1033800003610C2242618361C36103624362FFF700
:10339000CFF808BD780E00200044004008B5094869
:1033A000094B03604FF4E133436000238360C36043
:1033B00003610C2242618361C36103624362FFF7D0
:1033C000B7F808BDA80D00200048004030B589B00E
:1033D00000240494059406940794019402940394A1
:1033E0000F4D4FF080432B604F236B60AC600D4B53
:1033F000EB602C61AC612846FEF7F4FB4FF4805380
:10340000049304A92846FEF713FC0194039401A930
:103410002846FEF789FC2846FEF794FA09B030BD2D
:10342000380E0020A086010038B505460C46084637
:10343000FDF74EF80A2382B221462846FEF752FFD6
:1034400038BD30B583B004460D460846FDF740F858
:103450000A2382B229462046FEF744FF02A940F61D
:103460000D2321F8043D0A2302222046FEF73AFFED
:1034700003B030BD00B58DB01A4C1B492046FFF794
:10348000D3FF1A494B680A6889680091184904A853
:1034900000F06CFA04A92046FFF7D3FF154D012276
:1034A0004FF480612846FDF702FA0220FFF798F8F2
:1034B000114E12493046FFF7B7FF0220FFF790F890
:1034C0000A2308220DEB02013046FEF772FF02A923
:1034D0002046FFF7B6FF00224FF480612846FDF733
:1034E000E6F9C9E7780E0020E44100082C0E002020
:1034F000EC41000800080048A80D0020F841000831
:1035000010B5B8B02422002128A800F026FA002423
:103510002294239424942594269488222146684654
:1035200000F01BFA022327934FF480722A92102294
:103530002B9231933293012233920A223492072242
:1035400035923693379327A8FDF7CAFA0F232293B3
:1035500003232393249425942694042122A8FDF781
:1035600067FD062300930F9410946846FDF792FFC1
:103570004FF40070FDF7B8F938B010BD00B587B052
:10358000FDF718F8FFF7BCFFFFF770FEFFF7EEFE40
:10359000FFF704FFFFF71AFF01AC074D0FCD0FC473
:1035A0002B682360002101A8FFF700F8034B186087
:1035B000FEF7F7FFFEE700BF80410008A40D0020E2
:1035C00000B583B00D4B1A6E42F001021A661A6EF6
:1035D00002F001020092009A9A6D42F080529A65C0
:1035E0009B6D03F080530193019B00220F216FF02C
:1035F0000100FDF715F803B05DF804FB0010024070
:103600000368B3F1804F00D0704700B583B003F575
:1036100004339A6D42F001029A659B6D03F0010339
:103620000193019B002205211C20FCF7F9FF1C20BF
:10363000FDF72AF803B05DF804FB000000B58BB07D
:103640000023059306930793089309930368254A7B
:10365000934205D0244A934223D00BB05DF804FB7B
:10366000224B9A6D42F400329A659A6D02F4003250
:103670000192019ADA6C42F00102DA64DB6C03F029
:1036800001030293029B0C23059302230693032359
:1036900008930723099305A94FF09040FDF716F80A
:1036A000DBE7124B9A6D42F480229A659A6D02F420
:1036B00080220392039ADA6C42F00402DA64DB6C33
:1036C00003F004030493049B302305930223069321
:1036D000032308930723099305A90548FCF7F6FF80
:1036E000BBE700BF0044004000480040001002401B
:1036F000000800487047FEE7FEE7FEE7FEE7704778
:1037000008B5FCF76DFFFEF774FF08BD08B5394B2F
:103710005B6913F0400F14D1364B5B6913F0800FD7
:103720002CD1344B5B6913F4807F44D14020FDF7EA
:10373000C5F88020FDF7C2F84FF48070FDF7BEF8A1
:1037400008BD40212C48FDF7ABF878B92B4B1B681E
:103750005B6A2B4A52689B1A02D42A4A5360DBE701
:10376000264AD2681344274A5360D5E70128D3D1AB
:10377000224B1B685A6A224B5A60CDE780211E48B3
:10378000FDF78EF878B91D4B1B685B6A1C4A1268FE
:103790009B1A02D41B4A1360C3E7184AD268134429
:1037A000184A1360BDE70128BBD1144B1B685A6A45
:1037B000134B1A60B5E74FF480710F48FDF770F8AE
:1037C00078B90E4B1B685B6A0D4A92689B1A02D44B
:1037D0000C4A9360AAE7094AD2681344094A9360E5
:1037E000A4E70128A2D1054B1B685A6A044B9A60D2
:1037F0009CE700BF0004014000080048380E00208C
:10380000200E00202C0E002008B50248FEF7B9F863
:1038100008BD00BF380E002008B503460B4A1268E9
:1038200042B10A4A106803446A46934206D8074ADE
:10383000136008BD054A06491160F2E700F058F828
:103840000C2303604FF0FF30F3E700BF900D002022
:10385000F80E00200F49D1F8883043F47003C1F806
:1038600088300D4B1A6842F001021A6000209860FF
:103870001A6822F0A85222F410221A604FF48052E3
:10388000DA601A6822F480221A6098614FF00063AF
:103890008B60704700ED00E000100240DFF834D08C
:1038A000002103E00C4B5B58435004310B480C4B98
:1038B00042189A42F6D30B4A02E0002342F8043B36
:1038C000094B9A42F9D3FFF7C5FF00F017F8FFF74D
:1038D00055FEFEE70080012058420008000000204D
:1038E0007000002070000020F40E0020FEE70000B1
:1038F000014B1868704700BF0800002070B50D4EDE
:103900000D4CA41BA4100025A54209D10B4E0C4C54
:1039100000F028FCA41BA4100025A54205D170BD11
:1039200056F8253098470135EEE756F82530984788
:103930000135F2E7484200084842000848420008C2
:103940004C42000810B5431E0A44914200D110BDFC
:1039500011F8014B03F8014FF7E702440346934285
:1039600000D1704703F8011BF9E700000EB400B561
:103970009CB01DAB029006906FF000410948079182
:103980000491094953F8042B05910068019302A999
:1039900000F066F8029B00221A701CB05DF804EB80
:1039A00003B07047080000200802FFFF2DE9F04730
:1039B0008E689E4282460C469046994637D88A8940
:1039C00012F4906F31D0256809696F1A6569022376
:1039D00005EB450595FBF3F509F101033B449D42D9
:1039E00038BF1D46530530D5294600F021FB064659
:1039F00050B90C23CAF80030A38943F04003A381D7
:103A00004FF0FF30BDE8F0873A462169FFF79AFF93
:103A1000A38923F4906343F08003A3812661656149
:103A20003E44ED1B2660A5604E464E4500D94E46ED
:103A300032464146206800F093FAA3689B1BA360BE
:103A400023681E4426600020DCE72A4600F04AFB7B
:103A500006460028E2D12169504600F09BFAC8E7EB
:103A60002DE9F04F1D468B891F069DB080460C4600
:103A700016460FD50B696BB9402100F0D9FA2060CA
:103A8000206128B90C23C8F800304FF0FF30C8E09F
:103A9000402363610023099320238DF829303023CC
:103AA0008DF82A3003954FF0010B37463D4615F847
:103AB000013B0BB1252B3ED1B7EB060A0BD0534689
:103AC000324621464046FFF771FF013000F0A480E6
:103AD000099B534409933B78002B00F09D80002301
:103AE0004FF0FF32CDE90523049307938DF853304F
:103AF0001A932F46052217F8011B5048FCF7F0FCDB
:103B0000049BD0B9D90644BF20228DF853201A0750
:103B100044BF2B228DF853202A782A2A15D0079AE1
:103B20002F4600200A25394611F8013B303B092B6E
:103B30004DD9B8B10FE02F46B8E7404A801A0BFACA
:103B400000F0184304903D46D3E7039A111D126814
:103B50000391002A01DB079204E0524243F0020382
:103B6000079204933B782E2B0CD17B782A2B33D1F0
:103B7000039B1A1D1B680392002BB8BF4FF0FF3345
:103B8000023705932E4D397803222846FCF7A8FC0E
:103B900038B14023401B03FA00F0049B0343013774
:103BA0000493397827488DF8281006227E1CFCF7EC
:103BB00097FC002838D0244B13BB039B073323F01A
:103BC000070308330393099B4B4409936DE705FBF7
:103BD000023201200F46A6E700230137059319465C
:103BE0000A25384610F8012B303A092A03D9002B50
:103BF000C8D00591C6E705FB012101230746F0E780
:103C000003AB00932246114B04A94046AFF300805A
:103C1000B0F1FF3F8146D6D1A3895B063FF535AFB2
:103C200009981DB0BDE8F08F03AB00932246074B07
:103C300004A9404600F082F8EAE700BF0842000805
:103C40000E4200081242000800000000AD390008D2
:103C50002DE9F04791461F468A680B69DDF8208000
:103C60009342B8BF1346C9F8003091F84320064686
:103C70000C4612B10133C9F800302368990642BFDF
:103C8000D9F800300233C9F80030256815F0060570
:103C900007D104F1190AE368D9F800209B1AAB4256
:103CA00028DC94F843302268003318BF01239206C1
:103CB0002DD404F1430239463046C047013020D0AC
:103CC0002368E568D9F8002003F00603042B08BF39
:103CD000AD1AA36822690CBF25EAE5750025934259
:103CE000C4BF9B1AED184FF000091A344D451AD184
:103CF000002008E00123524639463046C0470130D3
:103D000003D14FF0FF30BDE8F0870135C3E7E1187C
:103D10005A1C302081F84300224494F8451082F860
:103D200043100233C5E70123224639463046C047D7
:103D30000130E6D009F10109D8E700002DE9F04390
:103D400001F1430C0C46097E85B06E2917460646E4
:103D500098460C9A00F0B38022D8632936D00AD84E
:103D6000002900F0B980582900F0838004F1420551
:103D700084F8421032E0642901D06929F6D1206824
:103D80001368050603F104012AD51B681160002B96
:103D900003DA2D225B4284F843206F480A2239E07F
:103DA000732900F09D8008D86F2920D07029DDD1BB
:103DB000236843F02003236003E0752917D0782996
:103DC000D4D1782384F84530644855E01368191D30
:103DD0001B68116004F1420584F8423001238CE035
:103DE0001B68116010F0400F18BF1BB2CFE71368BB
:103DF0002568181D1060280601D51B6802E06806BA
:103E0000FBD51B8854486F2914BF0A2208220021C1
:103E100084F843106568A560002DC0F29580216884
:103E200021F004012160002B3DD1002D40F08E8057
:103E30006546082A0BD12368DB0708D52369626829
:103E40009A42DEBF302305F8013C05F1FF35ACEBAB
:103E500005032361CDF800803B4603AA2146304686
:103E6000FFF7F6FE01304DD14FF0FF3005B0BDE851
:103E7000F083394884F84510136821681D1D1B68BC
:103E800015600A060BD5CA0744BF41F02001216026
:103E90001BB9226822F0200222601022B7E74D06EB
:103EA00048BF9BB2EFE76546B3FBF2F102FB11336B
:103EB000C35C05F8013D0B460029F5D1B9E713684D
:103EC00025686169181D106028061B6801D51960F6
:103ED00002E06A06FBD51980002323616546B9E735
:103EE0001368191D11601D68626800212846FCF7DF
:103EF000F7FA08B1401B606063682361002384F80F
:103F00004330A7E723692A4639463046C047013087
:103F1000AAD023689B0713D4E068039B9842B8BFDC
:103F20001846A3E701234A4639463046C0470130C8
:103F30009AD00135E368039A9B1AAB42F2DCEBE7B7
:103F4000002504F11909F5E7002BACD1037884F8BA
:103F5000423004F142056CE7194200082A42000889
:103F6000884210B501EB020307D8421E99420AD0DD
:103F700011F8014B02F8014FF8E78342F5D9811897
:103F8000D21AD34200D110BD13F8014D01F8014DF2
:103F9000F7E7000038B50546002945D051F8043C44
:103FA0000C1F002BB8BFE41800F0D2F81F4A1368AA
:103FB000104633B9636014602846BDE8384000F00D
:103FC000C8B8A3420CD921686218934204BF1A688A
:103FD0005B68636004BF521822600460ECE713461C
:103FE0005A680AB1A242FAD919685818A0420BD1EE
:103FF00020680144581882421960DDD11068526867
:104000005A6001441960D7E702D90C232B60D3E72B
:10401000206821188A4204BF11685268626004BF98
:10402000091821605C60C7E738BD00BF980D00200B
:1040300070B5CD1C25F0030508350C2D38BF0C25B7
:10404000002D064601DBA94203D90C233360002072
:1040500070BD00F07DF8214A1468214691B9204CCA
:1040600023681BB9304600F063F8206029463046CB
:1040700000F05EF8431C24D10C233360304600F07E
:1040800068F8E4E70B685B1B18D40B2B0FD90B60A7
:10409000CD50CC18304600F05CF804F10B00231D25
:1040A00020F00700C31AD3D05A42E250D0E78C4226
:1040B0004B6816BF636013600C46EBE70C4649681B
:1040C000CCE7C41C24F00304A04205D0211A3046DA
:1040D00000F02EF80130CFD02560DBE7980D0020EE
:1040E0009C0D0020F8B5074614460E4621B911462E
:1040F000BDE8F840FFF79CBF22B9FFF74BFF25460C
:104100002846F8BD00F026F8A0420FD221463846D6
:10411000FFF78EFF05460028F2D031462246FFF712
:1041200011FC31463846FFF735FFE9E73546E7E74A
:1041300038B5064C0023054608462360FFF76CFBA4
:10414000431C02D1236803B12B6038BDF00E002060
:104150007047704751F8043C181F002BBCBF0B5828
:10416000C0187047F8B500BFF8BC08BC9E46704741
:10417000F8B500BFF8BC08BC9E46704700000000C0
:10418000FC41000875340008000000000000000039
:1041900080000000A0860100400D0300801A060088
:1041A00000350C0040420F0080841E0000093D00D5
:1041B00000127A000024F40000366E010048E80185
:1041C000006CDC020000000000000000010203049B
:1041D00006070809000000000102030449444C4599
:1041E0000000000070756C73653A2000256C64094E
:1041F000256C6409256C64004300000064656661F9
:10420000756C745461736B00232D302B2000686C27
:104210004C006566674546470030313233343536E9
:104220003738394142434445460030313233343522
:10423000363738396162636465660000000000004B
:08424000C0BFFF7F0100000078
:08424800B501000800000000B0
:084250009101000800000000CC
:10425800AAAAAAAA00093D000C000020000000003C
:104268000000000000000000000000000000000046
:104278000000000000000000000000000000000036
:104288000000000000000000000000000000000026
:104298000000000000000000000000000000000016
:1042A8000000000000000000000000000000000006
:1042B80000000000000000000000000000000000F6
:040000050800389D1A
:00000001FF
